{
  "_format": "hh-sol-artifact-1",
  "contractName": "TestToken",
  "sourceName": "contracts/TestToken.sol",
  "abi": [
    {
      "inputs": [],
      "stateMutability": "nonpayable",
      "type": "constructor"
    },
    {
      "inputs": [
        {
          "internalType": "address",
          "name": "account",
          "type": "address"
        }
      ],
      "name": "balanceOf",
      "outputs": [
        {
          "internalType": "uint256",
          "name": "",
          "type": "uint256"
        }
      ],
      "stateMutability": "view",
      "type": "function"
    },
    {
      "inputs": [
        {
          "internalType": "address",
          "name": "",
          "type": "address"
        }
      ],
      "name": "balances",
      "outputs": [
        {
          "internalType": "uint256",
          "name": "",
          "type": "uint256"
        }
      ],
      "stateMutability": "view",
      "type": "function"
    },
    {
      "inputs": [],
      "name": "decimals",
      "outputs": [
        {
          "internalType": "uint8",
          "name": "",
          "type": "uint8"
        }
      ],
      "stateMutability": "view",
      "type": "function"
    },
    {
      "inputs": [],
      "name": "name",
      "outputs": [
        {
          "internalType": "string",
          "name": "",
          "type": "string"
        }
      ],
      "stateMutability": "view",
      "type": "function"
    },
    {
      "inputs": [],
      "name": "owner",
      "outputs": [
        {
          "internalType": "address",
          "name": "",
          "type": "address"
        }
      ],
      "stateMutability": "view",
      "type": "function"
    },
    {
      "inputs": [],
      "name": "symbol",
      "outputs": [
        {
          "internalType": "string",
          "name": "",
          "type": "string"
        }
      ],
      "stateMutability": "view",
      "type": "function"
    },
    {
      "inputs": [],
      "name": "totalSupply",
      "outputs": [
        {
          "internalType": "uint256",
          "name": "",
          "type": "uint256"
        }
      ],
      "stateMutability": "view",
      "type": "function"
    },
    {
      "inputs": [
        {
          "internalType": "address",
          "name": "to",
          "type": "address"
        },
        {
          "internalType": "uint256",
          "name": "amount",
          "type": "uint256"
        }
      ],
      "name": "transfer",
      "outputs": [],
      "stateMutability": "nonpayable",
      "type": "function"
    }
  ],
  "bytecode": "0x60806040526040518060400160405280600981526020017f54657374546f6b656e00000000000000000000000000000000000000000000008152506000908051906020019061004f929190610158565b506040518060400160405280600381526020017f54535400000000000000000000000000000000000000000000000000000000008152506001908051906020019061009b929190610158565b506012600260006101000a81548160ff021916908360ff160217905550620f42406003553480156100cb57600080fd5b50600354600560003373ffffffffffffffffffffffffffffffffffffffff1673ffffffffffffffffffffffffffffffffffffffff1681526020019081526020016000208190555033600460006101000a81548173ffffffffffffffffffffffffffffffffffffffff021916908373ffffffffffffffffffffffffffffffffffffffff16021790555061025c565b8280546101649061022a565b90600052602060002090601f01602090048101928261018657600085556101cd565b82601f1061019f57805160ff19168380011785556101cd565b828001600101855582156101cd579182015b828111156101cc5782518255916020019190600101906101b1565b5b5090506101da91906101de565b5090565b5b808211156101f75760008160009055506001016101df565b5090565b7f4e487b7100000000000000000000000000000000000000000000000000000000600052602260045260246000fd5b6000600282049050600182168061024257607f821691505b60208210811415610256576102556101fb565b5b50919050565b6108958061026b6000396000f3fe608060405234801561001057600080fd5b50600436106100885760003560e01c806370a082311161005b57806370a08231146101175780638da5cb5b1461014757806395d89b4114610165578063a9059cbb1461018357610088565b806306fdde031461008d57806318160ddd146100ab57806327e235e3146100c9578063313ce567146100f9575b600080fd5b61009561019f565b6040516100a29190610526565b60405180910390f35b6100b361022d565b6040516100c09190610561565b60405180910390f35b6100e360048036038101906100de91906105df565b610233565b6040516100f09190610561565b60405180910390f35b61010161024b565b60405161010e9190610628565b60405180910390f35b610131600480360381019061012c91906105df565b61025e565b60405161013e9190610561565b60405180910390f35b61014f6102a7565b60405161015c9190610652565b60405180910390f35b61016d6102cd565b60405161017a9190610526565b60405180910390f35b61019d60048036038101906101989190610699565b61035b565b005b600080546101ac90610708565b80601f01602080910402602001604051908101604052809291908181526020018280546101d890610708565b80156102255780601f106101fa57610100808354040283529160200191610225565b820191906000526020600020905b81548152906001019060200180831161020857829003601f168201915b505050505081565b60035481565b60056020528060005260406000206000915090505481565b600260009054906101000a900460ff1681565b6000600560008373ffffffffffffffffffffffffffffffffffffffff1673ffffffffffffffffffffffffffffffffffffffff168152602001908152602001600020549050919050565b600460009054906101000a900473ffffffffffffffffffffffffffffffffffffffff1681565b600180546102da90610708565b80601f016020809104026020016040519081016040528092919081815260200182805461030690610708565b80156103535780601f1061032857610100808354040283529160200191610353565b820191906000526020600020905b81548152906001019060200180831161033657829003601f168201915b505050505081565b80600560003373ffffffffffffffffffffffffffffffffffffffff1673ffffffffffffffffffffffffffffffffffffffff1681526020019081526020016000205410156103dd576040517f08c379a00000000000000000000000000000000000000000000000000000000081526004016103d490610786565b60405180910390fd5b80600560003373ffffffffffffffffffffffffffffffffffffffff1673ffffffffffffffffffffffffffffffffffffffff168152602001908152602001600020600082825461042c91906107d5565b9250508190555080600560008473ffffffffffffffffffffffffffffffffffffffff1673ffffffffffffffffffffffffffffffffffffffff16815260200190815260200160002060008282546104829190610809565b925050819055505050565b600081519050919050565b600082825260208201905092915050565b60005b838110156104c75780820151818401526020810190506104ac565b838111156104d6576000848401525b50505050565b6000601f19601f8301169050919050565b60006104f88261048d565b6105028185610498565b93506105128185602086016104a9565b61051b816104dc565b840191505092915050565b6000602082019050818103600083015261054081846104ed565b905092915050565b6000819050919050565b61055b81610548565b82525050565b60006020820190506105766000830184610552565b92915050565b600080fd5b600073ffffffffffffffffffffffffffffffffffffffff82169050919050565b60006105ac82610581565b9050919050565b6105bc816105a1565b81146105c757600080fd5b50565b6000813590506105d9816105b3565b92915050565b6000602082840312156105f5576105f461057c565b5b6000610603848285016105ca565b91505092915050565b600060ff82169050919050565b6106228161060c565b82525050565b600060208201905061063d6000830184610619565b92915050565b61064c816105a1565b82525050565b60006020820190506106676000830184610643565b92915050565b61067681610548565b811461068157600080fd5b50565b6000813590506106938161066d565b92915050565b600080604083850312156106b0576106af61057c565b5b60006106be858286016105ca565b92505060206106cf85828601610684565b9150509250929050565b7f4e487b7100000000000000000000000000000000000000000000000000000000600052602260045260246000fd5b6000600282049050600182168061072057607f821691505b60208210811415610734576107336106d9565b5b50919050565b7f496e73756666696369656e742062616c616e6365000000000000000000000000600082015250565b6000610770601483610498565b915061077b8261073a565b602082019050919050565b6000602082019050818103600083015261079f81610763565b9050919050565b7f4e487b7100000000000000000000000000000000000000000000000000000000600052601160045260246000fd5b60006107e082610548565b91506107eb83610548565b9250828210156107fe576107fd6107a6565b5b828203905092915050565b600061081482610548565b915061081f83610548565b9250827fffffffffffffffffffffffffffffffffffffffffffffffffffffffffffffffff03821115610854576108536107a6565b5b82820190509291505056fea264697066735822122087fba23c368a9e6499b43a0edab5668a33dabf75f9755d1aec5374a3ec75b2e764736f6c63430008090033",
  "linkReferences": {},
  "deployedLinkReferences": {}
}