{
  "_format": "hh-sol-artifact-1",
  "contractName": "CrowdFunding",
  "sourceName": "contracts/CrowdFunding.sol",
  "abi": [
    {
      "inputs": [
        {
          "internalType": "uint256",
          "name": "_fundingStart",
          "type": "uint256"
        },
        {
          "internalType": "uint256",
          "name": "_fundingEnd",
          "type": "uint256"
        },
        {
          "internalType": "uint256",
          "name": "_fundingTarget",
          "type": "uint256"
        },
        {
          "internalType": "uint256",
          "name": "_minFunding",
          "type": "uint256"
        },
        {
          "internalType": "uint256",
          "name": "_maxFunding",
          "type": "uint256"
        }
      ],
      "stateMutability": "nonpayable",
      "type": "constructor"
    },
    {
      "inputs": [
        {
          "internalType": "address",
          "name": "",
          "type": "address"
        }
      ],
      "name": "contributors",
      "outputs": [
        {
          "internalType": "uint256",
          "name": "",
          "type": "uint256"
        }
      ],
      "stateMutability": "view",
      "type": "function"
    },
    {
      "inputs": [
        {
          "internalType": "string",
          "name": "_description",
          "type": "string"
        },
        {
          "internalType": "address payable",
          "name": "_to",
          "type": "address"
        },
        {
          "internalType": "uint256",
          "name": "_amount",
          "type": "uint256"
        }
      ],
      "name": "createRequest",
      "outputs": [],
      "stateMutability": "payable",
      "type": "function"
    },
    {
      "inputs": [],
      "name": "fundingCurrent",
      "outputs": [
        {
          "internalType": "uint256",
          "name": "",
          "type": "uint256"
        }
      ],
      "stateMutability": "view",
      "type": "function"
    },
    {
      "inputs": [],
      "name": "fundingEnd",
      "outputs": [
        {
          "internalType": "uint256",
          "name": "",
          "type": "uint256"
        }
      ],
      "stateMutability": "view",
      "type": "function"
    },
    {
      "inputs": [],
      "name": "fundingStart",
      "outputs": [
        {
          "internalType": "uint256",
          "name": "",
          "type": "uint256"
        }
      ],
      "stateMutability": "view",
      "type": "function"
    },
    {
      "inputs": [],
      "name": "fundingTarget",
      "outputs": [
        {
          "internalType": "uint256",
          "name": "",
          "type": "uint256"
        }
      ],
      "stateMutability": "view",
      "type": "function"
    },
    {
      "inputs": [],
      "name": "getCurrentFunding",
      "outputs": [
        {
          "internalType": "uint256",
          "name": "",
          "type": "uint256"
        }
      ],
      "stateMutability": "view",
      "type": "function"
    },
    {
      "inputs": [],
      "name": "getFundingTarget",
      "outputs": [
        {
          "internalType": "uint256",
          "name": "",
          "type": "uint256"
        }
      ],
      "stateMutability": "view",
      "type": "function"
    },
    {
      "inputs": [],
      "name": "getMaxFunding",
      "outputs": [
        {
          "internalType": "uint256",
          "name": "",
          "type": "uint256"
        }
      ],
      "stateMutability": "view",
      "type": "function"
    },
    {
      "inputs": [],
      "name": "getMinFunding",
      "outputs": [
        {
          "internalType": "uint256",
          "name": "",
          "type": "uint256"
        }
      ],
      "stateMutability": "view",
      "type": "function"
    },
    {
      "inputs": [],
      "name": "getNoOfContributors",
      "outputs": [
        {
          "internalType": "uint256",
          "name": "",
          "type": "uint256"
        }
      ],
      "stateMutability": "view",
      "type": "function"
    },
    {
      "inputs": [],
      "name": "isClosed",
      "outputs": [
        {
          "internalType": "bool",
          "name": "",
          "type": "bool"
        }
      ],
      "stateMutability": "view",
      "type": "function"
    },
    {
      "inputs": [],
      "name": "isOpen",
      "outputs": [
        {
          "internalType": "bool",
          "name": "",
          "type": "bool"
        }
      ],
      "stateMutability": "view",
      "type": "function"
    },
    {
      "inputs": [
        {
          "internalType": "uint256",
          "name": "_requestNo",
          "type": "uint256"
        }
      ],
      "name": "makePayment",
      "outputs": [],
      "stateMutability": "nonpayable",
      "type": "function"
    },
    {
      "inputs": [],
      "name": "maxFunding",
      "outputs": [
        {
          "internalType": "uint256",
          "name": "",
          "type": "uint256"
        }
      ],
      "stateMutability": "view",
      "type": "function"
    },
    {
      "inputs": [],
      "name": "minFunding",
      "outputs": [
        {
          "internalType": "uint256",
          "name": "",
          "type": "uint256"
        }
      ],
      "stateMutability": "view",
      "type": "function"
    },
    {
      "inputs": [],
      "name": "noOfContributors",
      "outputs": [
        {
          "internalType": "uint256",
          "name": "",
          "type": "uint256"
        }
      ],
      "stateMutability": "view",
      "type": "function"
    },
    {
      "inputs": [],
      "name": "noOfRequests",
      "outputs": [
        {
          "internalType": "uint256",
          "name": "",
          "type": "uint256"
        }
      ],
      "stateMutability": "view",
      "type": "function"
    },
    {
      "inputs": [],
      "name": "owner",
      "outputs": [
        {
          "internalType": "address",
          "name": "",
          "type": "address"
        }
      ],
      "stateMutability": "view",
      "type": "function"
    },
    {
      "inputs": [],
      "name": "refund",
      "outputs": [],
      "stateMutability": "nonpayable",
      "type": "function"
    },
    {
      "inputs": [
        {
          "internalType": "uint256",
          "name": "",
          "type": "uint256"
        }
      ],
      "name": "requests",
      "outputs": [
        {
          "internalType": "uint256",
          "name": "amount",
          "type": "uint256"
        },
        {
          "internalType": "string",
          "name": "description",
          "type": "string"
        },
        {
          "internalType": "address payable",
          "name": "to",
          "type": "address"
        },
        {
          "internalType": "bool",
          "name": "approved",
          "type": "bool"
        },
        {
          "internalType": "uint256",
          "name": "noOfVoters",
          "type": "uint256"
        }
      ],
      "stateMutability": "view",
      "type": "function"
    },
    {
      "inputs": [],
      "name": "sendFunds",
      "outputs": [],
      "stateMutability": "payable",
      "type": "function"
    },
    {
      "inputs": [
        {
          "internalType": "uint256",
          "name": "_requestNo",
          "type": "uint256"
        }
      ],
      "name": "voteRequest",
      "outputs": [],
      "stateMutability": "nonpayable",
      "type": "function"
    }
  ],
  "bytecode": "0x60806040523480156200001157600080fd5b5060405162001d5738038062001d578339818101604052810190620000379190620000e6565b33600160006101000a81548173ffffffffffffffffffffffffffffffffffffffff021916908373ffffffffffffffffffffffffffffffffffffffff160217905550846002819055508360038190555082600581905550816006819055508060078190555050505050506200016e565b600080fd5b6000819050919050565b620000c081620000ab565b8114620000cc57600080fd5b50565b600081519050620000e081620000b5565b92915050565b600080600080600060a08688031215620001055762000104620000a6565b5b60006200011588828901620000cf565b95505060206200012888828901620000cf565b94505060406200013b88828901620000cf565b93505060606200014e88828901620000cf565b92505060806200016188828901620000cf565b9150509295509295909350565b611bd9806200017e6000396000f3fe6080604052600436106101405760003560e01c806381d12c58116100b6578063c1f11b4c1161006f578063c1f11b4c14610400578063c2b6b58c1461042b578063d411eccb14610456578063d48f708c14610481578063df6c13c3146104ac578063f1c3fe91146104d757610140565b806381d12c58146103095780638d68cf591461034a5780638da5cb5b146103545780639556f3d41461037f578063a31b9529146103aa578063bcde18f1146103d557610140565b806347535d7b1161010857806347535d7b1461021f5780634cb6f4a51461024a5780634e260f6f146102735780635114cb521461029e578063590e1ae3146102c7578063596b975a146102de57610140565b806313e7323e14610145578063193a4249146101705780631b16bb5c1461019b5780631f6d4942146101b75780633fa67636146101f4575b600080fd5b34801561015157600080fd5b5061015a610502565b604051610167919061104d565b60405180910390f35b34801561017c57600080fd5b50610185610508565b604051610192919061104d565b60405180910390f35b6101b560048036038101906101b0919061124c565b61050e565b005b3480156101c357600080fd5b506101de60048036038101906101d991906112f9565b6106a6565b6040516101eb919061104d565b60405180910390f35b34801561020057600080fd5b506102096106be565b604051610216919061104d565b60405180910390f35b34801561022b57600080fd5b506102346106c8565b6040516102419190611341565b60405180910390f35b34801561025657600080fd5b50610271600480360381019061026c919061135c565b6106e3565b005b34801561027f57600080fd5b506102886108e4565b604051610295919061104d565b60405180910390f35b3480156102aa57600080fd5b506102c560048036038101906102c0919061135c565b6108ea565b005b3480156102d357600080fd5b506102dc610b2b565b005b3480156102ea57600080fd5b506102f3610cc4565b604051610300919061104d565b60405180910390f35b34801561031557600080fd5b50610330600480360381019061032b919061135c565b610cca565b604051610341959493929190611420565b60405180910390f35b610352610db5565b005b34801561036057600080fd5b50610369610f1f565b6040516103769190611489565b60405180910390f35b34801561038b57600080fd5b50610394610f45565b6040516103a1919061104d565b60405180910390f35b3480156103b657600080fd5b506103bf610f4f565b6040516103cc919061104d565b60405180910390f35b3480156103e157600080fd5b506103ea610f59565b6040516103f7919061104d565b60405180910390f35b34801561040c57600080fd5b50610415610f5f565b604051610422919061104d565b60405180910390f35b34801561043757600080fd5b50610440610f65565b60405161044d9190611341565b60405180910390f35b34801561046257600080fd5b5061046b610f71565b604051610478919061104d565b60405180910390f35b34801561048d57600080fd5b50610496610f77565b6040516104a3919061104d565b60405180910390f35b3480156104b857600080fd5b506104c1610f81565b6040516104ce919061104d565b60405180910390f35b3480156104e357600080fd5b506104ec610f8b565b6040516104f9919061104d565b60405180910390f35b60035481565b60065481565b600160009054906101000a900473ffffffffffffffffffffffffffffffffffffffff1673ffffffffffffffffffffffffffffffffffffffff163373ffffffffffffffffffffffffffffffffffffffff161461059e576040517f08c379a000000000000000000000000000000000000000000000000000000000815260040161059590611516565b60405180910390fd5b6005543411156105e3576040517f08c379a00000000000000000000000000000000000000000000000000000000081526004016105da906115a8565b60405180910390fd5b600060096000600a5481526020019081526020016000209050600a600081548092919061060f906115f7565b919050555081816000018190555083816001019080519060200190610635929190610f91565b50828160020160006101000a81548173ffffffffffffffffffffffffffffffffffffffff021916908373ffffffffffffffffffffffffffffffffffffffff16021790555060008160020160146101000a81548160ff0219169083151502179055506000816003018190555050505050565b60006020528060005260406000206000915090505481565b6000600854905090565b600042600254111580156106de57504260035410155b905090565b600160009054906101000a900473ffffffffffffffffffffffffffffffffffffffff1673ffffffffffffffffffffffffffffffffffffffff163373ffffffffffffffffffffffffffffffffffffffff161415610774576040517f08c379a000000000000000000000000000000000000000000000000000000000815260040161076b9061168c565b60405180910390fd5b60006009600083815260200190815260200160002090508060020160149054906101000a900460ff16156107dd576040517f08c379a00000000000000000000000000000000000000000000000000000000081526004016107d49061171e565b60405180910390fd5b8060040160003373ffffffffffffffffffffffffffffffffffffffff1673ffffffffffffffffffffffffffffffffffffffff16815260200190815260200160002060009054906101000a900460ff161561086c576040517f08c379a0000000000000000000000000000000000000000000000000000000008152600401610863906117b0565b60405180910390fd5b60018160040160003373ffffffffffffffffffffffffffffffffffffffff1673ffffffffffffffffffffffffffffffffffffffff16815260200190815260200160002060006101000a81548160ff0219169083151502179055508060030160008154809291906108db906115f7565b91905055505050565b60085481565b600160009054906101000a900473ffffffffffffffffffffffffffffffffffffffff1673ffffffffffffffffffffffffffffffffffffffff163373ffffffffffffffffffffffffffffffffffffffff161461097a576040517f08c379a000000000000000000000000000000000000000000000000000000000815260040161097190611516565b60405180910390fd5b60055460045410156109c1576040517f08c379a00000000000000000000000000000000000000000000000000000000081526004016109b89061181c565b60405180910390fd5b60006009600083815260200190815260200160002090508060020160149054906101000a900460ff1615610a2a576040517f08c379a0000000000000000000000000000000000000000000000000000000008152600401610a2190611888565b60405180910390fd5b6002600854610a3991906118d7565b816003015411610a7e576040517f08c379a0000000000000000000000000000000000000000000000000000000008152600401610a7590611954565b60405180910390fd5b8060020160009054906101000a900473ffffffffffffffffffffffffffffffffffffffff1673ffffffffffffffffffffffffffffffffffffffff166108fc82600001549081150290604051600060405180830381858888f19350505050158015610aec573d6000803e3d6000fd5b5060018160020160146101000a81548160ff021916908315150217905550806000015460046000828254610b209190611974565b925050819055505050565b610b336106c8565b610b72576040517f08c379a0000000000000000000000000000000000000000000000000000000008152600401610b69906119f4565b60405180910390fd5b60008060003373ffffffffffffffffffffffffffffffffffffffff1673ffffffffffffffffffffffffffffffffffffffff1681526020019081526020016000205411610bf3576040517f08c379a0000000000000000000000000000000000000000000000000000000008152600401610bea90611a60565b60405180910390fd5b60003390508073ffffffffffffffffffffffffffffffffffffffff166108fc6000803373ffffffffffffffffffffffffffffffffffffffff1673ffffffffffffffffffffffffffffffffffffffff168152602001908152602001600020549081150290604051600060405180830381858888f19350505050158015610c7c573d6000803e3d6000fd5b5060008060003373ffffffffffffffffffffffffffffffffffffffff1673ffffffffffffffffffffffffffffffffffffffff1681526020019081526020016000208190555050565b60075481565b6009602052806000526040600020600091509050806000015490806001018054610cf390611aaf565b80601f0160208091040260200160405190810160405280929190818152602001828054610d1f90611aaf565b8015610d6c5780601f10610d4157610100808354040283529160200191610d6c565b820191906000526020600020905b815481529060010190602001808311610d4f57829003601f168201915b5050505050908060020160009054906101000a900473ffffffffffffffffffffffffffffffffffffffff16908060020160149054906101000a900460ff16908060030154905085565b610dbd6106c8565b610dfc576040517f08c379a0000000000000000000000000000000000000000000000000000000008152600401610df3906119f4565b60405180910390fd5b6006543410158015610e1057506007543411155b610e4f576040517f08c379a0000000000000000000000000000000000000000000000000000000008152600401610e4690611b2d565b60405180910390fd5b60008060003373ffffffffffffffffffffffffffffffffffffffff1673ffffffffffffffffffffffffffffffffffffffff168152602001908152602001600020541415610eaf5760086000815480929190610ea9906115f7565b91905055505b346000803373ffffffffffffffffffffffffffffffffffffffff1673ffffffffffffffffffffffffffffffffffffffff1681526020019081526020016000206000828254610efd9190611b4d565b925050819055503460046000828254610f169190611b4d565b92505081905550565b600160009054906101000a900473ffffffffffffffffffffffffffffffffffffffff1681565b6000600754905090565b6000600454905090565b60025481565b600a5481565b60004260035410905090565b60055481565b6000600554905090565b6000600654905090565b60045481565b828054610f9d90611aaf565b90600052602060002090601f016020900481019282610fbf5760008555611006565b82601f10610fd857805160ff1916838001178555611006565b82800160010185558215611006579182015b82811115611005578251825591602001919060010190610fea565b5b5090506110139190611017565b5090565b5b80821115611030576000816000905550600101611018565b5090565b6000819050919050565b61104781611034565b82525050565b6000602082019050611062600083018461103e565b92915050565b6000604051905090565b600080fd5b600080fd5b600080fd5b600080fd5b6000601f19601f8301169050919050565b7f4e487b7100000000000000000000000000000000000000000000000000000000600052604160045260246000fd5b6110cf82611086565b810181811067ffffffffffffffff821117156110ee576110ed611097565b5b80604052505050565b6000611101611068565b905061110d82826110c6565b919050565b600067ffffffffffffffff82111561112d5761112c611097565b5b61113682611086565b9050602081019050919050565b82818337600083830152505050565b600061116561116084611112565b6110f7565b90508281526020810184848401111561118157611180611081565b5b61118c848285611143565b509392505050565b600082601f8301126111a9576111a861107c565b5b81356111b9848260208601611152565b91505092915050565b600073ffffffffffffffffffffffffffffffffffffffff82169050919050565b60006111ed826111c2565b9050919050565b6111fd816111e2565b811461120857600080fd5b50565b60008135905061121a816111f4565b92915050565b61122981611034565b811461123457600080fd5b50565b60008135905061124681611220565b92915050565b60008060006060848603121561126557611264611072565b5b600084013567ffffffffffffffff81111561128357611282611077565b5b61128f86828701611194565b93505060206112a08682870161120b565b92505060406112b186828701611237565b9150509250925092565b60006112c6826111c2565b9050919050565b6112d6816112bb565b81146112e157600080fd5b50565b6000813590506112f3816112cd565b92915050565b60006020828403121561130f5761130e611072565b5b600061131d848285016112e4565b91505092915050565b60008115159050919050565b61133b81611326565b82525050565b60006020820190506113566000830184611332565b92915050565b60006020828403121561137257611371611072565b5b600061138084828501611237565b91505092915050565b600081519050919050565b600082825260208201905092915050565b60005b838110156113c35780820151818401526020810190506113a8565b838111156113d2576000848401525b50505050565b60006113e382611389565b6113ed8185611394565b93506113fd8185602086016113a5565b61140681611086565b840191505092915050565b61141a816111e2565b82525050565b600060a082019050611435600083018861103e565b818103602083015261144781876113d8565b90506114566040830186611411565b6114636060830185611332565b611470608083018461103e565b9695505050505050565b611483816112bb565b82525050565b600060208201905061149e600083018461147a565b92915050565b7f4f6e6c7920746865206f776e65722063616e20706572666f726d20746869732060008201527f616374696f6e0000000000000000000000000000000000000000000000000000602082015250565b6000611500602683611394565b915061150b826114a4565b604082019050919050565b6000602082019050818103600083015261152f816114f3565b9050919050565b7f416d6f756e742069732067726561746572207468616e207468652066756e646960008201527f6e67207461726765740000000000000000000000000000000000000000000000602082015250565b6000611592602983611394565b915061159d82611536565b604082019050919050565b600060208201905081810360008301526115c181611585565b9050919050565b7f4e487b7100000000000000000000000000000000000000000000000000000000600052601160045260246000fd5b600061160282611034565b91507fffffffffffffffffffffffffffffffffffffffffffffffffffffffffffffffff821415611635576116346115c8565b5b600182019050919050565b7f4f6e776572206973206e6f7420616c6c6f77656420746f20766f746500000000600082015250565b6000611676601c83611394565b915061168182611640565b602082019050919050565b600060208201905081810360008301526116a581611669565b9050919050565b7f526571756573742068617320616c7265616479206265656e20617070726f766560008201527f6400000000000000000000000000000000000000000000000000000000000000602082015250565b6000611708602183611394565b9150611713826116ac565b604082019050919050565b60006020820190508181036000830152611737816116fb565b9050919050565b7f596f75206861766520616c726561647920766f74656420666f7220746869732060008201527f7265717565737400000000000000000000000000000000000000000000000000602082015250565b600061179a602783611394565b91506117a58261173e565b604082019050919050565b600060208201905081810360008301526117c98161178d565b9050919050565b7f46756e64696e67206973206e6f74206d65740000000000000000000000000000600082015250565b6000611806601283611394565b9150611811826117d0565b602082019050919050565b60006020820190508181036000830152611835816117f9565b9050919050565b7f5265717565737420686173206265656e20617070726f76656400000000000000600082015250565b6000611872601983611394565b915061187d8261183c565b602082019050919050565b600060208201905081810360008301526118a181611865565b9050919050565b7f4e487b7100000000000000000000000000000000000000000000000000000000600052601260045260246000fd5b60006118e282611034565b91506118ed83611034565b9250826118fd576118fc6118a8565b5b828204905092915050565b7f4e6f7420656e6f75676820766f74657273000000000000000000000000000000600082015250565b600061193e601183611394565b915061194982611908565b602082019050919050565b6000602082019050818103600083015261196d81611931565b9050919050565b600061197f82611034565b915061198a83611034565b92508282101561199d5761199c6115c8565b5b828203905092915050565b7f46756e64696e67206973206e6f74206f70656e00000000000000000000000000600082015250565b60006119de601383611394565b91506119e9826119a8565b602082019050919050565b60006020820190508181036000830152611a0d816119d1565b9050919050565b7f436f6e7472696275746f7220686173206e6f7420636f6e747269627574656400600082015250565b6000611a4a601f83611394565b9150611a5582611a14565b602082019050919050565b60006020820190508181036000830152611a7981611a3d565b9050919050565b7f4e487b7100000000000000000000000000000000000000000000000000000000600052602260045260246000fd5b60006002820490506001821680611ac757607f821691505b60208210811415611adb57611ada611a80565b5b50919050565b7f416d6f756e74206973206e6f742077697468696e207468652072616e67650000600082015250565b6000611b17601e83611394565b9150611b2282611ae1565b602082019050919050565b60006020820190508181036000830152611b4681611b0a565b9050919050565b6000611b5882611034565b9150611b6383611034565b9250827fffffffffffffffffffffffffffffffffffffffffffffffffffffffffffffffff03821115611b9857611b976115c8565b5b82820190509291505056fea26469706673582212207ed203dc8b45b8cf1c529247ff806e11e13ee93b320db7a8d2bbd3815789454164736f6c63430008090033",
  "linkReferences": {},
  "deployedLinkReferences": {}
}