{
  "_format": "hh-sol-artifact-1",
  "contractName": "SimpleAuction",
  "sourceName": "contracts/SimpleAuction.sol",
  "abi": [
    {
      "inputs": [
        {
          "internalType": "uint256",
          "name": "_biddingTime",
          "type": "uint256"
        },
        {
          "internalType": "address payable",
          "name": "_beneficiary",
          "type": "address"
        }
      ],
      "stateMutability": "nonpayable",
      "type": "constructor"
    },
    {
      "anonymous": false,
      "inputs": [
        {
          "indexed": false,
          "internalType": "address",
          "name": "winner",
          "type": "address"
        },
        {
          "indexed": false,
          "internalType": "uint256",
          "name": "amount",
          "type": "uint256"
        }
      ],
      "name": "AuctionEnded",
      "type": "event"
    },
    {
      "anonymous": false,
      "inputs": [
        {
          "indexed": false,
          "internalType": "address",
          "name": "bidder",
          "type": "address"
        },
        {
          "indexed": false,
          "internalType": "uint256",
          "name": "amount",
          "type": "uint256"
        }
      ],
      "name": "HightBidIncrease",
      "type": "event"
    },
    {
      "inputs": [],
      "name": "auctionEnd",
      "outputs": [],
      "stateMutability": "nonpayable",
      "type": "function"
    },
    {
      "inputs": [],
      "name": "auctionEndTime",
      "outputs": [
        {
          "internalType": "uint256",
          "name": "",
          "type": "uint256"
        }
      ],
      "stateMutability": "view",
      "type": "function"
    },
    {
      "inputs": [],
      "name": "beneficiary",
      "outputs": [
        {
          "internalType": "address payable",
          "name": "",
          "type": "address"
        }
      ],
      "stateMutability": "view",
      "type": "function"
    },
    {
      "inputs": [],
      "name": "bid",
      "outputs": [],
      "stateMutability": "payable",
      "type": "function"
    },
    {
      "inputs": [],
      "name": "highestBid",
      "outputs": [
        {
          "internalType": "uint256",
          "name": "",
          "type": "uint256"
        }
      ],
      "stateMutability": "view",
      "type": "function"
    },
    {
      "inputs": [],
      "name": "highestBidder",
      "outputs": [
        {
          "internalType": "address",
          "name": "",
          "type": "address"
        }
      ],
      "stateMutability": "view",
      "type": "function"
    },
    {
      "inputs": [
        {
          "internalType": "address",
          "name": "",
          "type": "address"
        }
      ],
      "name": "pendingReturns",
      "outputs": [
        {
          "internalType": "uint256",
          "name": "",
          "type": "uint256"
        }
      ],
      "stateMutability": "view",
      "type": "function"
    },
    {
      "inputs": [],
      "name": "withdraw",
      "outputs": [
        {
          "internalType": "bool",
          "name": "",
          "type": "bool"
        }
      ],
      "stateMutability": "nonpayable",
      "type": "function"
    }
  ],
  "bytecode": "0x60806040526000600560006101000a81548160ff0219169083151502179055503480156200002c57600080fd5b5060405162000c4438038062000c44833981810160405281019062000052919062000153565b806000806101000a81548173ffffffffffffffffffffffffffffffffffffffff021916908373ffffffffffffffffffffffffffffffffffffffff1602179055508142620000a09190620001c9565b600181905550505062000226565b600080fd5b6000819050919050565b620000c881620000b3565b8114620000d457600080fd5b50565b600081519050620000e881620000bd565b92915050565b600073ffffffffffffffffffffffffffffffffffffffff82169050919050565b60006200011b82620000ee565b9050919050565b6200012d816200010e565b81146200013957600080fd5b50565b6000815190506200014d8162000122565b92915050565b600080604083850312156200016d576200016c620000ae565b5b60006200017d85828601620000d7565b925050602062000190858286016200013c565b9150509250929050565b7f4e487b7100000000000000000000000000000000000000000000000000000000600052601160045260246000fd5b6000620001d682620000b3565b9150620001e383620000b3565b9250827fffffffffffffffffffffffffffffffffffffffffffffffffffffffffffffffff038211156200021b576200021a6200019a565b5b828201905092915050565b610a0e80620002366000396000f3fe60806040526004361061007b5760003560e01c80633ccfd60b1161004e5780633ccfd60b146101095780634b449cba1461013457806391f901571461015f578063d57bde791461018a5761007b565b80631998aeef1461008057806326b387bb1461008a5780632a24f46c146100c757806338af3eed146100de575b600080fd5b6100886101b5565b005b34801561009657600080fd5b506100b160048036038101906100ac91906106b2565b610345565b6040516100be91906106f8565b60405180910390f35b3480156100d357600080fd5b506100dc61035d565b005b3480156100ea57600080fd5b506100f36104d5565b6040516101009190610734565b60405180910390f35b34801561011557600080fd5b5061011e6104f9565b60405161012b919061076a565b60405180910390f35b34801561014057600080fd5b5061014961061d565b60405161015691906106f8565b60405180910390f35b34801561016b57600080fd5b50610174610623565b6040516101819190610794565b60405180910390f35b34801561019657600080fd5b5061019f610649565b6040516101ac91906106f8565b60405180910390f35b60015442106101f9576040517f08c379a00000000000000000000000000000000000000000000000000000000081526004016101f09061080c565b60405180910390fd5b600354341161023d576040517f08c379a00000000000000000000000000000000000000000000000000000000081526004016102349061089e565b60405180910390fd5b6000600354146102c25760035460046000600260009054906101000a900473ffffffffffffffffffffffffffffffffffffffff1673ffffffffffffffffffffffffffffffffffffffff1673ffffffffffffffffffffffffffffffffffffffff16815260200190815260200160002060008282546102ba91906108ed565b925050819055505b33600260006101000a81548173ffffffffffffffffffffffffffffffffffffffff021916908373ffffffffffffffffffffffffffffffffffffffff160217905550346003819055507f9df503c989c466056e0165d8086ebdb348d0bfec625e1ff5edb62d03fab519f6333460405161033b929190610943565b60405180910390a1565b60046020528060005260406000206000915090505481565b6001544210156103a2576040517f08c379a0000000000000000000000000000000000000000000000000000000008152600401610399906109b8565b60405180910390fd5b600560009054906101000a900460ff16156103f2576040517f08c379a00000000000000000000000000000000000000000000000000000000081526004016103e99061080c565b60405180910390fd5b6001600560006101000a81548160ff0219169083151502179055507fdaec4582d5d9595688c8c98545fdd1c696d41c6aeaeb636737e84ed2f5c00eda600260009054906101000a900473ffffffffffffffffffffffffffffffffffffffff16600354604051610462929190610943565b60405180910390a160008054906101000a900473ffffffffffffffffffffffffffffffffffffffff1673ffffffffffffffffffffffffffffffffffffffff166108fc6003549081150290604051600060405180830381858888f193505050501580156104d2573d6000803e3d6000fd5b50565b60008054906101000a900473ffffffffffffffffffffffffffffffffffffffff1681565b600080600460003373ffffffffffffffffffffffffffffffffffffffff1673ffffffffffffffffffffffffffffffffffffffff1681526020019081526020016000205490506000811115610614576000600460003373ffffffffffffffffffffffffffffffffffffffff1673ffffffffffffffffffffffffffffffffffffffff168152602001908152602001600020819055503373ffffffffffffffffffffffffffffffffffffffff166108fc829081150290604051600060405180830381858888f193505050506106135780600460003373ffffffffffffffffffffffffffffffffffffffff1673ffffffffffffffffffffffffffffffffffffffff16815260200190815260200160002081905550600091505061061a565b5b60019150505b90565b60015481565b600260009054906101000a900473ffffffffffffffffffffffffffffffffffffffff1681565b60035481565b600080fd5b600073ffffffffffffffffffffffffffffffffffffffff82169050919050565b600061067f82610654565b9050919050565b61068f81610674565b811461069a57600080fd5b50565b6000813590506106ac81610686565b92915050565b6000602082840312156106c8576106c761064f565b5b60006106d68482850161069d565b91505092915050565b6000819050919050565b6106f2816106df565b82525050565b600060208201905061070d60008301846106e9565b92915050565b600061071e82610654565b9050919050565b61072e81610713565b82525050565b60006020820190506107496000830184610725565b92915050565b60008115159050919050565b6107648161074f565b82525050565b600060208201905061077f600083018461075b565b92915050565b61078e81610674565b82525050565b60006020820190506107a96000830184610785565b92915050565b600082825260208201905092915050565b7f5468652061756374696f6e2068617320616c726561647920656e646564000000600082015250565b60006107f6601d836107af565b9150610801826107c0565b602082019050919050565b60006020820190508181036000830152610825816107e9565b9050919050565b7f596f75206d7573742062696420686967686572207468616e207468652063757260008201527f72656e7420686967686573742062696400000000000000000000000000000000602082015250565b60006108886030836107af565b91506108938261082c565b604082019050919050565b600060208201905081810360008301526108b78161087b565b9050919050565b7f4e487b7100000000000000000000000000000000000000000000000000000000600052601160045260246000fd5b60006108f8826106df565b9150610903836106df565b9250827fffffffffffffffffffffffffffffffffffffffffffffffffffffffffffffffff03821115610938576109376108be565b5b828201905092915050565b60006040820190506109586000830185610785565b61096560208301846106e9565b9392505050565b7f5468652061756374696f6e20686173206e6f742079657420656e646564000000600082015250565b60006109a2601d836107af565b91506109ad8261096c565b602082019050919050565b600060208201905081810360008301526109d181610995565b905091905056fea2646970667358221220b18e612d3bc68f44e07f43127c6ebb01fa86b7bd4d68158186362e7a6d06557b64736f6c63430008090033",
  "linkReferences": {},
  "deployedLinkReferences": {}
}